:020000040000FA
:1000000080410020F100000011010000D500000037
:1000100000000000000000000000000000000000E0
:1000200000000000000000000000000015010000BA
:10003000000000000000000017010000190100008E
:100040001B0100001B0100001B0100001B01000040
:100050001B0100001B0100001B0100001B01000030
:100060005D94000085940000A19400001B01000035
:10007000E99800001B0100001B0100001B010000AB
:100080001B0100001B0100001B0100001B01000000
:100090001B0100001B0100001B010000DD9C000093
:1000A000A56B00001B0100001B0100001B010000EC
:1000B0001B0100001B0100001B0100001B010000D0
:1000C0000348854600F0B8F80048004791B40000A6
:1000D0008041002004207146084202D0EFF30980DD
:1000E00001E0EFF308807146004A10479D47000089
:1000F0000A480B4901600B4901600B4901600B4A3A
:100100000B491160002101600A4880470A480047F6
:10011000FEE7FEE7FEE7FEE7FEE7FEE70001005030
:100120005900000016000000880000002400005064
:10013000A55A0000518E0000C100000030B50B46EA
:10014000014600202022012409E00D46D5409D42B1
:1001500005D31D469540491B254695404019154637
:10016000521E002DF1DC30BD70B50024254600285C
:1001700001DA01244042002901DA01254942FFF752
:10018000DDFFAC4200D04042002C00D0494270BD9F
:1001900003460B439B0703D009E008C9121F08C0A0
:1001A000042AFAD203E00B78491C0370401C521E4B
:1001B000F9D27047D2B201E00270401C491EFBD256
:1001C00070470022F6E710B513460A460446194662
:1001D000FFF7F0FF204610BDF0B51FB40646002023
:1001E00082B005464024019100901BE0019922460F
:1001F0000F46304600F042F8049A059B801A994158
:1002000010D310461946224600F028F8361A8F41BE
:100210000197224601200021009F00F01FF83818A6
:100220004D4100902046641E0028DFDC019B0098B1
:100230002946324607B0F0BD064C0125064E05E0C2
:100240002046E36807C82B4398471034B442F7D3DD
:10025000FFF73AFFC0CC0000E0CC000010B5202A28
:1002600004DB0146203A9140002010BD914020233C
:100270009C1A0346E3401943904010BD10B5202A54
:1002800004DB0846203AD040002110BD0B46D34085
:10029000D0402024A21A91400843194610BD10B442
:1002A000016A0C24A14311430162416A090A09024F
:1002B0001943416210BC7047F8B505200007C26BB6
:1002C00028218A43C263C26B0A43C263254841693D
:1002D0004212914341614169114341612249486899
:1002E00010434860214C204603F0E4FA0322120434
:1002F0000C21204603F020FB1D4807F098FF1D4D00
:100300000022082311462846FFF7C9FF296A012069
:1003100001432962184E0024696A090A0902203142
:100320006962296A0122D20211432962296BC90735
:10033000FCD0286369698F05BF0D00214A0093191D
:10034000491C5B88C9B2B3520429F7D33781696A63
:10035000090A090208316962641CE4B2052CDBD386
:10036000F8BD000040000050C04000501CFE235665
:100370001C00000400000E407004002070B5002234
:100380001021214804F030F92048017C2048002940
:1003900006D00122082104F027F902F083FC70BD89
:1003A0000122082104F020F91A4C0120E0601A4DC6
:1003B00000221146284603F0BFFA284603F07AFAD5
:1003C0006005826B30218A438263826B0A438263B9
:1003D0001248026949068A43026102690A430261BE
:1003E0000F4807F024FF0F4DE1214902284609F08C
:1003F00047FB1121284609F031FB052003F02AFEB6
:100400000020E06070BD0000C04000504C0C002097
:100410008040005080420050103D80574000005006
:100420001000000400000540F8B50025514C524E64
:10043000E5762A464021304604F0D6F80122110222
:10044000304604F0D1F800222021304604F0CCF8E8
:1004500001221021304604F0C7F848488369012181
:10046000474A002B03D011740561A5760AE0157484
:100470004269002A75D001616176E07E082210434E
:10048000E076A17607F0D0F860770122910230463D
:1004900004F0AAF801225102304604F0A5F8012226
:1004A00057033946374804F09FF8002006F040F91A
:1004B00001221103344804F097F801221146314813
:1004C00004F092F8012202212E4804F08DF8012256
:1004D00004212C4804F088F82C4C256306F04CF9D4
:1004E00001223946284804F07FF80122910326486A
:1004F00004F07AF8264F01221146384604F074F8C9
:1005000001220221384604F06FF801220421384606
:1005100004F06AF86563A56301221103194804F029
:1005200063F80122D102174804F05EF8012291021B
:10053000144804F059F801225102124804F054F80A
:10054000012211020F4804F04FF80122D1030E4896
:1005500004F04AF800228021304604F045F8F8BD46
:10056000FFE7BFF34F8F0C490A48C860BFF34F8FB6
:1005700000BFFDE7AC0C002040400050404200505E
:100580004C0C0020804000500040005000420050C1
:10059000C04000500400FA0500ED00E0F8B5FFF798
:1005A00043FF00F0A9F80127254CBF02032239467A
:1005B000204604F019F80122D102204604F014F874
:1005C000FFF77AFE1F4C204603F074F90022114613
:1005D000204603F0B1F961061B4C7D22D200204673
:1005E00008F00CFF2068650328432060174E376031
:1005F0002068A7033843206015480021154C8173FB
:10060000204603F057F900221146204603F094F9E2
:10061000124C114AA910204608F0F0FE2068284329
:1006200020606015306020683843206000F090F84A
:100630000AF0D6FAFFF7A2FE00F0FEF8F8BD0000BF
:10064000004000500400005F0000114000E100E0A5
:10065000AC0C00200300C05EF81600002000014032
:1006600010B5094C0346074A0021204606F068FBF6
:100670000121204606F010FC0121204606F008FC6E
:1006800010BD0000504600000000044070B5044654
:1006900005200007026B012109038A430263026BF4
:1006A0000A430263104807F0C2FD104D01210022E9
:1006B0004907284603F040F9284603F0FBF80021DB
:1006C000491C0429FCDB23460A4C094A0021204628
:1006D00006F036FB0121204606F0DEFB0121204614
:1006E00006F0D6FB70BD0000140000041400C057D3
:1006F000504600000000044010B55920114C16214E
:1007000088222060216022602368002BF9D00E49E6
:100710004868032210434860012003F0D9F80B48D1
:10072000C168C907C90FFBD0016A0122D2049143F5
:1007300001620020206008F0A3FA002003F04EF9C7
:1007400010BD0000000100504000005000020050A9
:1007500070B5104C104E0025A572304603F0AAF873
:1007600000221146304603F0E7F825720B480C4C86
:100770000288B106204608F041FE20686103084364
:1007800020604815074908602068890508432060F3
:1007900070BD00004C0C00200200805E60BD0000B7
:1007A0000000014000E100E010B5094C02460121C3
:1007B000C906204608F022FE206861030843206035
:1007C000481504490860206889050843206010BD69
:1007D0000000014000E100E010B5114C204603F09C
:1007E00069F820220021204603F0A6F80D4C0E499E
:1007F000E079085C0AF062FA607E002801D006F019
:1008000073F8002209490A4809F004FB03F096FF37
:1008100009F088FC01200749C005086010BD0000F0
:100820009B3C00404C0C00205CBD000015460000C5
:100830002802002000E100E070B5144C2068012877
:1008400008D0592016218822206021602260236868
:10085000012BF9D1082003F03BF80D4A0820D1689C
:100860000142FBD02B256D06284603F023F8002219
:100870000321284603F060F80122052000231146D9
:1008800000020AF0B7FA0020206070BD000100509D
:100890000002005070B5134C1349607A401CC0B27E
:1008A0006072098A884211D900256572217A204632
:1008B000807A00290BD0012908D1401EC0B2A07255
:1008C000FFF7CEFEA07A002800D1257270BD401C33
:1008D000C0B2A072FFF7C4FEA07A6528F6D301204B
:1008E000207270BDC003002000040020422847D2BF
:1008F000244A927C002A01D1002841D0F0B5234C33
:1009000042008318204D1A19072909D848000818F1
:10091000295CE15440194178517080789070F0BDA5
:10092000092907D81A480178E15441785170807834
:100930009070F0BD0A2907D00B2918D00C29F8D1E6
:10094000FF2100F073FEF0BD124EB1794800081887
:100950002F5CE75440194378537080789070491C9D
:10096000C8B2B0710728EED30020B071F0BD0A48BC
:10097000C15CE15418184178517080789070F0BDD6
:10098000704700004C0C00206BC80000803800202D
:100990001A040020C003002046390020422840D21B
:1009A000F0B50C461F49897C002901D100281AD0D6
:1009B0001D4D410043185919072C17D860001B4ED4
:1009C0002018375C0024002F01D0EA5400E0EC54DA
:1009D00080194378002B01D04A7000E04C70807879
:1009E000002801D08A70F0BD8C70F0BD092C07D8AA
:1009F0000F480278EA5442784A7080788870F0BDD7
:100A00000B2C05D00C2CFAD1114600F00FFEF0BDD6
:100A10000848C25CEA54181842784A708078887096
:100A2000F0BD70474C0C0020803800206BC80000DF
:100A30001A0400204639002042280FD210B4084C76
:100A4000A47C002C01D1002806D044000019054CDC
:100A5000215400194270837010BC70477047000029
:100A60004C0C002080380020F0B42D4C2D4D072870
:100A700012D8420080180021225C00194478837843
:100A8000480008182A544019491C4470C9B28370A0
:100A90004229F5D3F0BC7047092810D8224900201C
:100AA0000C784B788A78410041186C544919401CE5
:100AB0004B70C0B28A704228F5D3F0BC70470A2848
:100AC00013D00B28F9D1194B0020410041185A5C72
:100AD0006A54CA18491954784C70401C9278C0B2B4
:100AE0008A704228F1D3F0BC7047002001464200D2
:100AF00083180F4AE65C525C1B195700D219AE549A
:100B000052195E785670401C9B78C0B293700728CB
:100B100000D30020491CC9B24229E8D3F0BC704779
:100B20006BC80000803800201A04002046390020DD
:100B300030CA00004749487900287DD1F8B5C87F00
:100B4000454C401CC0B2C8772278904275D900202D
:100B5000C8776078414D401CC2B2627020468078F0
:100B60003F4B410041184819012A02D0082A04D0FD
:100B700006E0695C1970407801E080781870587060
:100B80003748384B007800218446914216D20846F7
:100B90000F30824212D8022901D2604600E00720BD
:100BA000207100202579571A0601361AF618F61911
:100BB000203E401CC0B2F5770528F5D3491CC9B2C8
:100BC0000329E2D32648002140788446914215D279
:100BD00008460F30824211D8022901D2604600E057
:100BE00007202071002025798F1A0601361AF61881
:100BF000F619401CC0B2F5730528F6D3491CC9B2DA
:100C00000329E3D3002617493001801B41180091C6
:100C10001549002547180098415D785DFFF766FE8D
:100C20006D1CEDB20F2DF6D3761CF6B2052EEAD36D
:100C3000607811280CD301E00BE009E0002161701D
:100C4000A078401CC0B2A070062801D32171A17009
:100C5000F8BD7047C0030020E00300207BCB0000FC
:100C600018040020BF3B0020ACC700003149487980
:100C700000285ED1487E401CC0B248768A7E9042F1
:100C800057D9F0B5002082B0487606462948417F02
:100C90000029C17E30D0891B0F31CDB21C2D01D36C
:100CA0001C3DEDB2B100244A711889186800019109
:100CB000281822490024009047181E4B0198D97823
:100CC000005D0A291AD01E4A525D002A2DD0FFF776
:100CD00065FE641CE4B2052CEFD3761CF6B2102E30
:100CE000D4D31449C87E401CC0B2C8761C2801D396
:100CF0000020C87602B0F0BD8919CEE70F49009AEE
:100D000042288A5C79788C46B978E2D20D4B9B7C7C
:100D1000002B01D10028DCD04300C0180A4B1A5424
:100D20006246C01842708170D3E79978FFF7DEFD04
:100D3000CFE77047C003002095C900008EC80000AF
:100D4000FEC800004C0C0020803800203149487952
:100D500000285ED1487E401CC0B248768A7E904210
:100D600057D9F0B5002082B0487606462948817FE1
:100D70000029C17E30D0891B091DCDB21C2D01D3A5
:100D80001C3DEDB23101244A891B8918680001918C
:100D9000281822490024009047181E4B0198D97842
:100DA000005D0A291AD01E4A525D002A2DD0FFF795
:100DB000F5FD641CE4B20F2CEFD3761CF6B2052EC1
:100DC000D4D31449C87E401CC0B2C8761C2801D3B5
:100DD0000020C87602B0F0BD8919CEE70F49009A0D
:100DE00042288A5C79788C46B978E2D20D4B9B7C9C
:100DF000002B01D10028DCD04300C0180A4B1A5444
:100E00006246C01842708170D3E79978FFF76EFD93
:100E1000CFE77047C0030020ACC700008EC80000B9
:100E2000FEC800004C0C0020803800206748407944
:100E300000287DD1F8B5664C6079401CC0B2607165
:100E4000A179884275D900276771607A614D401C8D
:100E5000C0B26072012810D15F4E00204200022112
:100E60008218A9544100735C521989195370401CAF
:100E70004978C0B291700528F0D30026700035186B
:100E80005448405D002805D0524901280FD002285F
:100E900030D065E04F482818417850480918300193
:100EA000801BC01E085C0721FFF720FD58E0494861
:100EB000281800904178494809183001871BF81E0E
:100EC000085CE179FFF712FD009841784348091862
:100ED000381F085C0721FFF709FD0098BF1E417805
:100EE0003E480818C05D0721FFF700FD3949002082
:100EF000485535E06D186878032808D337494118FC
:100F00003001801BC01E085CE179FFF7EFFC6878B8
:100F1000042808D3314941183001801B001F085CA8
:100F20000721FFF7E3FCA878C11E0F290BDA01E0C7
:100F30004BE049E0294941183001801BC01E085C84
:100F4000E179FFF7D3FCA878811E0F2908DA23493D
:100F500041183001801B801E085C0721FFF7C6FC8A
:100F6000761CF6B2052E89D300201A4E01274100C7
:100F70004218B15C00290BD091194B785B1CDDB293
:100F80004D708B785B1EDBB28B709D4200D1B754E5
:100F9000401CC0B20528EAD33078002814D1F0787C
:100FA000002811D1B07900280ED1707A00280BD119
:100FB000307B002808D100216172E079401CC0B26A
:100FC000E071062800D9E171F8BD7047C003002028
:100FD000E00300200A3C00208DCB0000ACC70000DD
:100FE0005649487900287DD1087D401CC0B208755B
:100FF0004A7D904276D9F0B5002483B00C75264620
:101000004E4A907D8019C5B21C2D01D31C3DEDB216
:10101000D07D00282DD04A480027815D002919D9AC
:101020006800281847490190401800904648434BF3
:10103000005D641CD978E4B20A295FD0434A525D4E
:10104000002A75D0FFF7AAFC3D487F1C805DFFB2E7
:10105000B842EBD8761CF6B2092ED1D33749887D39
:10106000401CC0B288751C2801D30020887503B0CD
:10107000F0BD0820801B32490290085C0027002840
:10108000E8D9680028182F490190401800904120A5
:10109000011B2D48294B405C641CD978E4B20A2915
:1010A0000DD02A4A525D002A24D0FFF777FC24494C
:1010B00002987F1C085CFFB2B842E8D8CAE7214911
:1010C000019A009B8A5C00999B7849789C4642284B
:1010D000EDD21F4B9B7C002B01D10028E7D04300B1
:1010E000C01800E028E01B4B1A54C018417061463C
:1010F0008170DCE79978FFF7F9FBD8E71149019A8D
:1011000042288A5C009949788C46009989789BD25C
:101110000F4B9B7C002B01D1002895D04300C018B9
:101120000C4B1A546246C018427081708CE7FFE77E
:101130009978FFF7DBFB87E770470000C0030020CA
:1011400027CA00008EC80000E5C90000FEC80000E4
:101150004C0C0020803800205649487900287DD169
:10116000C87B401CC0B2C8730A7C904276D9F0B5E7
:10117000002483B0CC7326464E4A507C8019C5B2F9
:101180001C2D01D31C3DEDB2907C00282DD04A4887
:101190000027815D002919D9680028184749019066
:1011A000401800904648434B005D641CD978E4B277
:1011B0000A295FD0434A525D002A75D0FFF7EEFB43
:1011C0003D487F1C805DFFB2B842EBD8761CF6B27A
:1011D0001C2ED1D33749487C401CC0B248741C280F
:1011E00001D30020487403B0F0BD1B20801B32499E
:1011F0000290085C00270028E8D968002818A9395F
:101200000190401800904120011B2D48294B405C63
:10121000641CD978E4B20A290DD02A4A525D002A0A
:1012200024D0FFF7BBFB244902987F1C085CFFB267
:10123000B842E8D8CAE72149019A009B8A5C009924
:101240009B7849789C464228EDD21F4B9B7C002B13
:1012500001D10028E7D04300C01800E028E01B4B74
:101260001A54C018417061468170DCE79978FFF725
:101270003DFBD8E71149019A42288A5C00994978D8
:101280008C46009989789BD20F4B9B7C002B01D117
:10129000002895D04300C0180C4B1A546246C01861
:1012A000427081708CE7FFE79978FFF71FFB87E7B3
:1012B00070470000C003002037C900008EC800003E
:1012C00053C90000E2C800004C0C00208038002008
:1012D000F8B52E2003F066F8BC4E00277074012884
:1012E00000D97774B7741A2003F05CF8B84C04285E
:1012F000A07000D9A770B748A178405C20821E205A
:1013000003F050F8E070042800D9E770E078B249A3
:101310004000085AE0821B2003F044F820710428A2
:1013200000D92771AD482179AD4D405C28731C2050
:1013300003F038F8E071042801D90320E071A948CE
:10134000E179405C60711D2003F02CF820720428C4
:1013500001D903202072A448217A405CA0711F208B
:1013600003F020F8E874042801D90120E8749F48AC
:10137000E97C405C2874202003F014F828760428C7
:1013800001D9012028769A48297E405C6875212081
:1013900003F008F82877042801D90120287790481D
:1013A0009449027F895C8176222002F0FBFF924DF6
:1013B0000428E87001D90120E8709048E978405C81
:1013C0002870232002F0EEFF2872042801D90120A2
:1013D00028728B48297A405CA871242002F0E2FF31
:1013E000E873042801D90120E8738648E97B405C52
:1013F0006073252002F0D6FF2873042801D901204C
:1014000028738149C0B2095CA1728049085C2073CD
:10141000262002F0C7FF6874042801D901206874EF
:101420007B48697C405CA073272002F0BBFFA87555
:10143000042801D90120A8757548A97D405CE07396
:10144000282002F0AFFF664D0128A87401D90120C1
:10145000A874292002F0A6FFE875012801D901200F
:10146000E8752A2002F09EFF6877012801D9012043
:1014700068772B2002F096FFA877012801D9012078
:10148000A877152002F08EFF624C0428207201D943
:1014900004202072C1B26048405CFFF7F7F81720C3
:1014A00002F080FFE871012800D9EF7101F02AF9FC
:1014B000A079042805D8E879002802D00B20FFF78E
:1014C000D3FA182002F06EFFA870092801D9AF7076
:1014D00002E0072800D1AF712D2002F063FF2871D0
:1014E0000A2801D92F7103E0072801D108202871AB
:1014F000192002F057FFE870062802D90A2800D008
:10150000EF70E878A978884201D1401CE870162075
:1015100002F048FFA0710E2800D9A77101F05EF912
:101520002F2002F03FFF6871012801D96F710AE096
:10153000002808D0A079401F0928F7D8FB22C6212F
:10154000364802F0EBFE3648364D007C002816D0B7
:101550003348407C022807D02C2002F023FF0121D1
:10156000B073F17301282ED0B773F7732868012187
:101570008907884328602C4802F08EF919E0296811
:101580000120800781432960274802F085F924481B
:10159000C07D002818D0707C002815D02C2002F0C7
:1015A00001FFB0730120F0731B4827720078FFF72A
:1015B00057F8B07B012806D0B773F77305F0DCF855
:1015C00001F024FA2772F8BDB773F5E7AC0C0020E0
:1015D0000004002070C6000084C8000075C600002A
:1015E000C00300207AC600007FC6000084C6000049
:1015F00089C600008EC60000E003002093C60000EC
:1016000098C600009DC60000A2C60000A7C6000044
:10161000ACC600006C0C00206BC6000080380020B7
:101620004C0C0020200001400300C05EF0B44200DA
:101630008518194A194E545D002C02D000237355A9
:1016400000E071554700C019AA18144F5378C0190B
:10165000002B02D00027477000E041709778002FE0
:1016600002D00022827000E08170002C12D0002B8A
:1016700010D0002F0ED071550022417081709C4215
:1016800002D9BC4203D303E00122BB4200D20222B2
:1016900000218154F0BC704746390020803800207A
:1016A00070B51C48418A491C89B24182C28A914264
:1016B0001BD90021418218488078092816D00828B3
:1016C00013D107F0A1FA1548154D8079022810D0E2
:1016D00004280AD80024AB786A7829782046FFF7D6
:1016E000ABF9641CE4B2422CF5D370BD06F04CFAA1
:1016F000E9E70C4E0024305D002805D1AB786A780C
:1017000029782046FFF798F9641CE4B2422CF2D302
:1017100070BD000000040020C00300206C0C0020FD
:101720001A040020D23A0020F1B52D4D00242D4995
:1017300006226243511800208E4661002A4A535AFD
:101740002A4A4600925B13421FD0294E735A1F4605
:10175000174222D1134373526A7A1F2A1DD273464D
:101760001B5C5E00234BB4469F5D5300224ED31892
:10177000F754204F6646F6191F4F7678DB195E70D6
:1017800001269E70521C6A7207E0194F7B5A134261
:1017900003D01A4A925B13407B52401CC0B2062809
:1017A000CCD3641CE4B20B2CC1D3009800221449A2
:1017B000002809D0487B401CC0B248736B7998421E
:1017C0000DD94A73012008E0887B401CC0B28873A1
:1017D000AB79984203D98A73002006F007FAF8BD66
:1017E00000040020F7C70000C41A00209EC10000BA
:1017F0006A38002028C700005F3B0020BEC10000FF
:10180000C00300202248807B002840D0F8B5214A40
:101810000B215078204B1030C0B2507084461078A5
:1018200000904843C0B286461C4E00204100401C38
:10183000C0B273520328F9D30021724652185300E4
:10184000D218174B0020D7184B003A5C624505D3DD
:10185000144D4200B45AED5A2C40B452401CC0B250
:101860000328F2D3491CC9B20B29E6D3094C0098CE
:1018700004F0A6FF60780021F02800D36170207882
:10188000401CC0B22070062800D32170F8BD7047FC
:10189000AC0C0020C0030020FFFF00001E0400204D
:1018A00080380020C6C60000F8B521480027009007
:1018B00020480621794300240E187D001E48415B14
:1018C0001E486200805A01420ED01D4A515B0B46F1
:1018D000034223D1014351530098012283792146C9
:1018E000384607F017F919E0154B595B014203D050
:1018F0001448805A01405953305D00280ED01249D7
:10190000097B884201D2002000E0401A305500983F
:10191000002283792146384607F0FCF8641CE4B2C3
:10192000062CCBD37F1CFFB20B2FC1D3F8BD000018
:101930006C0C00200C3A0020C41A00209EC100004C
:101940006A380020BEC10000C0030020F8B5FF4C7B
:101950000746A07B00280AD1FD4B1D4660337C352D
:10196000187F0A2F0FD0092F17D0002F14D1F84855
:10197000417C022910D0C07D00280DD0F448007CA5
:10198000002812D01CE0042801D2401C20770D2230
:101990000121284602F096FCF8BD002801D0401E27
:1019A00020770D220121284691E3EA48807900281A
:1019B00006D1607C0028EFD0E74800780228EBD2FF
:1019C000781E0026E54D032802D9F81F062808D8FE
:1019D0006879002805D06E712F220121E04802F0BD
:1019E00071FC0E2FD8D23B007B441B79DB189F443F
:1019F000073C606E89A906BFF3F2F1F006EFCBE772
:101A0000A07B002815D0A673D648E673016842066D
:101A100091430160D44801F03FFF04F0ADFE00F0B7
:101A2000F5FFCB48D149007A4000085AFEF7BCFECA
:101A300017E00120A073E073CD480672CD4800780E
:101A4000FEF724FEC248CC49007A4000085AFEF74F
:101A5000ABFEC54801F02EFFC24908684A06104394
:101A600008602C220121C54831E3C148817905294C
:101A700010D3867116220121C14802F023FCE879B7
:101A8000012874D00120E87101461722BD4802F0F8
:101A900019FC7EE3E8790128B1D00124EC7117220A
:101AA0002146B84802F00EFCB7480477467786779F
:101AB000F8BDAF488179491CC9B281710E2900D99E
:101AC000867100F08BFE16220121AD48FFE2A84886
:101AD0008079801E0A28EBD8E878401CC0B2E870F4
:101AE000062805D90A2802D20A20E87000E0EE7024
:101AF000E878A978884201D1401CE87019220121B8
:101B0000A248E4E29A4CA0790028D1D0012804D15F
:101B1000217A9848405CFEF7A3FDA671E879002879
:101B200008D1A878072805D1AE701822012198485D
:101B300002F0C8FB01219448162201774677867788
:101B40008F48C4E28A488079401F0928B0D8687954
:101B5000002801D06E7106E001206871FB22C621C9
:101B60008C4802F055FB2F2201217D48AFE205E3AE
:101B70007F488079002830D0012842D002284ED0FA
:101B800003285AD0042866D005287AD0062871D0B8
:101B9000072870D008286ED00D286DD00E286CD084
:101BA00009286BD00A286AD00B2869D00C2800D0ED
:101BB0007EE77549887D0028FAD0401EC0B288753E
:101BC00075492722095C7548C173012174487EE27A
:101BD00080E247E232E21CE225E1A878092801D040
:101BE0000828E5D16D48C1780029E1D0491EC9B265
:101BF000C1706C4A4900515AC1821E2201216A48B3
:101C000065E2664881780029D2D0491EC9B2674A88
:101C10008170515C01821A220121654857E25F48B8
:101C200001790029C4D0491EC9B2017161481B2243
:101C3000405C28730121604849E25848C179002975
:101C4000B6D0491EC9B25D4AC171515C41711C22B6
:101C500001215B483BE25148017A0029A8D0491E86
:101C6000C9B2584A0172515C81711D220121564846
:101C70002DE206E012E01EE02AE037E044E052E008
:101C8000C2E0E87C002893D0401EC0B24F49E874FF
:101C9000085C28741F2201214D4818E2287E002884
:101CA00086D0401EC0B24B492876085C6875202259
:101CB000012149480BE2287F002896D0401EC0B27F
:101CC00046492877085CA876212201214448FEE194
:101CD0002D48C178002988D0491EC9B2414AC17037
:101CE000515C0170222201213F48F0E12648017A2F
:101CF000002989D0491EC9B23C4A0172515C8171E8
:101D0000232201213A48E2E11F49C87B002889D0FB
:101D1000401EC0B2C87337492422095C1F48417372
:101D200001213548D3E11849087B002888D0401E9E
:101D3000C0B2087331490A5C18498A72304A105C93
:101D40000873252201212F48C1E10000AC0C0020BE
:101D50004C0C0020CC0C002010030020C0030020FD
:101D6000C5030020200001400300C05E6CBD0000E0
:101D70006C0C00206BC6000060BD0000BA0C002097
:101D8000720C0020C7030020E0030020C3030020E2
:101D9000C203002080380020B1C6000000040020EB
:101DA000F603002084C800000304002070C6000071
:101DB0000204002075C60000040400207AC600005A
:101DC000070400207FC600000804002084C600002D
:101DD000D303002089C60000D80300208EC600006F
:101DE000DC03002093C60000E303002098C6000037
:101DF000E80300209DC60000EF030020A2C60000FB
:101E0000A7C60000EC030020E548417C00298DD0E6
:101E1000491EC9B24174E3482622415CE2488173FD
:101E20000121E24853E1E248807900282BD00128C3
:101E30003DD0022849D0032855D0042861D0052878
:101E40006DD006287FD0072877D0082875D00D28B8
:101E500074D00E2873D0092872D00A2871D00B28AC
:101E600070D00C2800D023E6CD48817D0429FAD219
:101E7000491CC9B28175CF482722415CCA48C17349
:101E80000121CD4823E1A878092801D00828EAD10A
:101E9000C548C1780429E6D2491CC9B2C170C74AF5
:101EA0004900515AC1821E220121C5480FE1BE4896
:101EB00081780429D7D2491CC9B2C24A8170515CC9
:101EC00001821A220121C04801E1B74801790429A1
:101ED000C9D2491CC9B20171BC481B22405C28739D
:101EE0000121BB48F3E0B048C1790429BBD2491CA9
:101EF000C9B2B84AC171515C41711C220121B64876
:101F0000E5E0A948017A0429ADD2491CC9B2B34A17
:101F10000172515C81711D220121B148D7E0E87C3A
:101F20000428A0D2401CC0B2AE49E874085C2874F2
:101F30001F220121AC48CAE005E011E01DE02AE0C3
:101F400037E045E056E0287E04288CD2401CC0B221
:101F5000A6492876085C687520220121A448B6E0CD
:101F6000287F042897D2401CC0B2A2492877085C79
:101F7000A87621220121A048A9E08948C178042936
:101F800089D2491CC9B29D4AC170515C017022229C
:101F900001219B489BE08248017A04298AD2491C8E
:101FA000C9B2984A0172515C81712322012196487D
:101FB0008DE07B48C17B04298AD2491CC9B2C17318
:101FC00092482422415C78484173012190487EE088
:101FD0007349087B042889D2401CC0B208738D491C
:101FE0000A5C71498A728C4A105C087325220121AF
:101FF0008A486CE06A48417C042985D2491CC9B2F0
:10200000417468482622415C6748817301210F387A
:102010005DE0674CA079012800D149E5207A0028CD
:10202000FBD0401E2072152201217D4802F04AF9A2
:10203000207A7C49085CFEF713FBF8BD5C4CA07964
:102040000128FAD0207A0428F7D2401C20721522E9
:102050000121734802F036F9207A7249085CFEF7D4
:10206000FFFAF8BD5248807905280AD0062813D017
:1020700007281CD00828F4D1A87F002822D0AE77EA
:1020800022E0A87C002801D0AE7401E00120A874F1
:102090002822012164481AE0E87D002801D0EE756D
:1020A00001E00120E8752922012160480FE0687FE6
:1020B000002801D06E7701E0012068772A220121F3
:1020C0005B4804E00120A8772B220121594802F047
:1020D000F9F8F8BD364CA07901460D39012906D82A
:1020E000A67116220121544802F0ECF806E00728F8
:1020F00001D0082802D1E8780A28EAD0E879002837
:1021000017D0EE71A878092805D9AE7018220121E0
:102110004A4802F0D7F817220121494802F0D2F8C4
:10212000A079012825D0A878092828D0082829D006
:102130002AE0A07901280CD0A878401CC0B2A87071
:10214000092800D9AE70182201213C4802F0BAF8E3
:10215000E6E72879401CC0B228710A2801D92E71FF
:1021600003E0072801D1082028712D2201213548DC
:10217000ECE72879092802D0082803D009E002F00A
:1021800073F901E002F0BAF9A0790728A1D0082874
:102190009FD003480121017746778677F8BD00007C
:1021A000E0030020ACC6000000040020F103002082
:1021B0006C0C0020B1C60000F603002084C80000AB
:1021C0000304002070C600000204002075C6000051
:1021D000040400207AC60000070400207FC6000027
:1021E0000804002084C60000D303002089C6000034
:1021F000D80300208EC60000DC03002093C6000038
:10220000E303002098C60000E80300209DC60000FC
:10221000EF030020A2C60000A7C60000EC030020C8
:10222000740C00206BC60000D2030020D7030020EE
:10223000DD030020DE030020720C0020C20300201A
:10224000C7030020C40300204B484079002875D103
:10225000F0B54A48017C491CCAB249490274897BDD
:102260008E4672452DD900220274C37C1146002B84
:1022700020D9414FFA789446424D847C424E2D5DE0
:102280000322725562460A2A09D1404EBA79725524
:10229000521CD2B2BA71072A01D30022BA71641C4F
:1022A000E2B282740F2A01D300228274491CC9B29F
:1022B0009942E1D35B1CD9B2C174042901D901212F
:1022C000C174017D7246491CC9B2D21C017591428C
:1022D0004FD900212E4F2F4E01758A008C180420F3
:1022E000E319A2191518203DED7F15541D18203D46
:1022F000ED7F1D54401E0006000EF3D1224B264AEE
:10230000585C125C3255214A0028525C3A5501D083
:10231000401E5854491CC9B20F29DED300251C4A5F
:10232000A8001C492818002487184618325D002A86
:1023300005D01148C1780A290BD00BE01AE0200122
:10234000011B164808180C49405D8978FEF7CEFA43
:1023500007E0395D2001031B10481818405DFEF7A7
:102360001DFB641CE4B2052CE0D36D1CEDB20F2DF7
:10237000D5D3F0BD70470000C0030020E00300206B
:102380000004002012CB00009D3C0020423D0020B4
:10239000F73C0020AC3C002062C60000ACC7000047
:1023A00057484079002872D1F0B5564C564DA07A66
:1023B000401CC0B2A072A97A884229D90020A0721C
:1023C000E97A0646002923D9504F4D48C178E07A72
:1023D0000A29385CFFD1FEF789FAE07A4C4B3A5C67
:1023E0000121995400214B4B401CC0B29954E0721A
:1023F000422800D3E172A87A801CC0B2A8721428C7
:1024000001D90A20A872761CE87AF6B28642DCD39B
:10241000E87A401CC0B2E872072801D90320E872AC
:102420003B4E0024305D012802D0022830D048E025
:10243000384F2A7B395D32488918CAB23A55C1787B
:102440000A290BD02046FEF7A9FA2A7B395DFF2026
:10245000801A814235D90220305532E0422CF4D224
:102460002D48807C002801D1002CEED0610060183E
:102470002A490B5C002B00D00A54401841780029EF
:1024800000D0427081780029DFD08270DDE736E02D
:1024900020492A7B085D904209D8002718480F552B
:1024A0008178FF222046FEF779FA375509E0801A35
:1024B000C2B213480A55C1780A2907D02046FEF750
:1024C0006DFA641CE4B2422CACD3F0BD422CF8D2BD
:1024D0001148807C002801D1002CF2D061006018E6
:1024E0000E490B5C002B00D00A544018417800299B
:1024F00000D0427081780029E3D08270E1E7704714
:10250000C0030020E00300200004002030CA0000C7
:102510005B3C0020193C00204C0C0020803800203F
:1025200000B50D484079002811D10C480C4A417D76
:10253000491CC9B24175D27B914208D9002141752D
:10254000407E002804D0012801D107F041F900BDE8
:1025500007F0B4F800BD0000C0030020E003002035
:1025600000040020F0B5184F7879002825D1174DC8
:102570001749687B401CC0B26873497B88421CD9EC
:1025800000206873B878FEF76FFA124E0024F978CD
:10259000A87B0A2912D0142250438019005DFEF74F
:1025A000A5F9641CE4B2142CF1D3A87B401CC0B282
:1025B000A873082801D30020A873F0BD1421484354
:1025C0008019005D0A21EAE7C0030020E003002033
:1025D0000004002072CA000070B5254C0025A07CC4
:1025E000E17C01280FD002280CD1491CC8B2E0744C
:1025F000FEF736F81F48204A007AE17C105C8142E1
:1026000000D3A57470BD491EC8B2E074FEF728F867
:10261000E07C0028F6D1194E1949B572A5740868F6
:102620008A03904308601748016891430160164887
:10263000016891430160154801F02EF9144801F03A
:102640002BF9144801F028F904F096F800F0DEF9AF
:10265000E576284604F06CF8042006F011FB022011
:1026600020750D49042008700120B07270BD000073
:10267000AC0C00206C0C00206BC600004C0C002041
:102680000000114020000140000001400400005FF4
:102690000300C05E0200805E1303002010B50B48EB
:1026A000C179012905D00121C1711722084801F023
:1026B00009FE08488179002906D00021817116227F
:1026C0000121054801F0FEFD10BD0000C0030020FF
:1026D000C70300206C0C0020720C002010B500F025
:1026E00011F806488079042806D80548C0790028E2
:1026F00002D00B20FEF7B8F910BD00006C0C0020D2
:10270000C0030020F8B53522C6210C4801F006FEB2
:102710000A4C0B4F0B4D002041004218395CA35C62
:102720004E0089196B541219491953784B70401C8B
:102730009278C0B28A704228EED3F8BD7C040020A3
:10274000E6C600004639002010B5224CA07B0028C8
:1027500017D000F019F9204880790F2811D2030012
:102760007B441B79DB189F440C070D101216191CB3
:102770001F282B2E31222500A07C002801D1FEF736
:1027800089F810BDFFF790F810BD012000E000208F
:10279000FEF7CAFF10BDFEF7DFFC10BDFEF720FC00
:1027A00010BDFEF763FA10BDFEF7D0FA10BDFEF7BC
:1027B000C1F910BDFEF73AFB10BDFFF7D3FE10BD07
:1027C000FFF7EEFD10BDFFF73FFD10BDFFF7A8FEC0
:1027D00010BD0000AC0C00206C0C0020F8B501F01E
:1027E00019FE4C484C4E80790025012822D0022841
:1027F00028D0032829D0042827D005283FD0062830
:1028000048D0072848D0082846D0444C0D2845D049
:102810000E2855D0092858D00A2858D00B2861D046
:102820000C2806D1B078FEF71FF9E5751C2020763C
:102830006576F8BDB0780728FBD12846B570FEF75D
:1028400013F9F8BD01F022FEF8BD35490020420021
:10285000401CC0B28D520B28F9D3324B00210A0123
:102860000020521AD2181554401CC0B20F28FAD3B7
:10287000491CC9B20529F2D32B484572F8BDF0793D
:10288000002805D0F57117220121284801F01AFD12
:102890007574F8BDB575F8BDF576F8BD0022244E07
:1028A0000720130100219B1A9B195854491CC9B2D7
:1028B0000F29FAD3521CD2B2052AF2D36570F8BDA3
:1028C0000720FEF7D1F86572F8BDA573F8BD194968
:1028D000194A00200D541554401CC0B24228F9D3A7
:1028E000E572F8BD154E164F00218A008A180020A7
:1028F0009319D2191D541554401CC0B20528F9D3A0
:102900001048455410484554491CC9B20F29ECD30E
:10291000A574F8BD6C0C0020C0030020E00300206B
:102920006A380020143B002000040020C703002068
:10293000BF3B0020193C00205B3C0020AC3C002049
:10294000F73C00209D3C0020423D002000B50B4894
:10295000807B00280AD00A48C179002906D109499C
:102960008979012903D08078082803D200BD007935
:102970000828FBD3FEF794FE00BD0000AC0C00203D
:10298000C00300206C0C0020F0B51B4C207F0028F9
:102990002FD0E07E401CC0B2E0760A2829D900275B
:1029A000E7761648617F3D46415C00291AD9144EEE
:1029B0001448A17F405C491CA1771349CA79002AB9
:1029C00003D00B21FDF792FF05E0B279012A11D067
:1029D0008978FDF78BFF0948617F6D1C405CEDB283
:1029E000A842E5D8607F401CC0B26077092800D3B8
:1029F0002777F0BD0979ECE7E003002027CA000043
:102A00006C0C0020E5C90000C003002010B50A4886
:102A100000F042FF05200007026B012109038A43F1
:102A20000263026B02630122044801F0DDFD0449E8
:102A30000020086310BD00001400C0570040005083
:102A40000042005070B50B4D00200B4CA872A178CD
:102A50000126002901D0A07000E0A67011220121FA
:102A6000064801F02FFCA078401CC0B201F038FFEE
:102A7000AE7270BD4C0C00206C0C00206E0C00205F
:102A800070B5244E0020244CB072A17B002906D0E2
:102A9000A07303F071FEFF20F53001F0DBFAE57E54
:102AA00028090001E07604F01FFB617F012901D0B5
:102AB0002E3080B24D22D2001849904207D3E07EDA
:102AC0000F221043E076084601F0C4FA1BE0144AD6
:102AD000904207D3E07E0B221043E076084601F0D7
:102AE000B9FA10E00F4A9042E07E06D30922104363
:102AF000E076084601F0AEFA05E008221043E076E1
:102B0000084601F0A7FAE576E07BA0730120B072D9
:102B100070BD00004C0C0020AC0C0020DC05000057
:102B2000510200004102000007490A78002A0AD138
:102B300008B50875FD216A4611705070022168467B
:102B400003F066FA08BD7047CC0C0020F8B5494F79
:102B5000B87A401CC0B2B872042875D30026464922
:102B6000BE72087C00286FD144480090807900280C
:102B70006AD10D46AE7204F087FA414CA080012064
:102B8000A872A088FF21373188425DD3A0883D49D3
:102B90003D4D884233D2387B401CC0B238730A287E
:102BA00016D93E733878022812D002203870A87BDC
:102BB00000280DD0AE733548EE730168420691438C
:102BC0000160334800F068FE03F0D6FDFFF71EFFFA
:102BD000A088304988420FD2F87A401CC0B2F872FF
:102BE000797D884209D9244886722B4800780028CC
:102BF00003D12A48066100E0FE727E7315E0A088CA
:102C00008721890088420DD93878002807D0787B41
:102C1000401CC0B278730A2801D97E733E70FE72E0
:102C20003E7302E07E73FE723E73687F012808D017
:102C3000A2882521002009018A4206D3642012E0DF
:102C400002E0A08800F0D4FEF8BD154B00218C00F6
:102C5000E4186488944202D98800185C03E0491C97
:102C6000C9B21429F3D30099097D8142ECD9FFF749
:102C70005BFFF8BD100300204C0C0020CC0C0020A2
:102C80005003002012020000AC0C00202000014084
:102C90000300C05E030200006903002040420050B0
:102CA0002EC1000010B5104800F0F6FD0520000709
:102CB000816B302291438163816B81630B48016991
:102CC00052069143016101690161094C00222021F2
:102CD000204601F089FC00221021204601F084FCEE
:102CE00004490120C86010BD103D805740000050CD
:102CF000804000508042005008B5694608700121AC
:102D0000684603F085F908BD08B500200090064824
:102D100001210173F4216A461170407A507002213A
:102D2000684603F075F908BDCC0C002070B5084C5E
:102D30000025E078002803D0064800F043FDE57048
:102D40002079002803D0044800F03CFD257170BDB7
:102D5000600300200C0E0020150E002018480021F2
:102D600081724171C172017241720173C18101743A
:102D7000EA224274134A154B917781740122C2747E
:102D80001148202241708170017000201954401CAC
:102D90009042FBD30E4A062300201154401C984257
:102DA000FBD30C4B062200201954401C9042FBD34D
:102DB000094A402300201154401C9842FBD370471D
:102DC000CC0C0020AC0C0020B00300200A380020FE
:102DD000B9030020B30300202A380020F8B50020F2
:102DE0006946087008F014F80121684600F09EF862
:102DF000002870D0684600784849002803D08878B9
:102E0000CF780E7902E008784F788E78444C2546CA
:102E100060358034062E18D0052E19D00021E977B0
:102E20002173042E3FD0002003F006FB207AB84225
:102E300048D02772012F39D0022F3BD0032F3CD02E
:102E4000042F45D0052F47D03AE00120E87754E021
:102E5000217B00291DD000202073617A304E217221
:102E6000B07200F013F9C82001F0F4F8002000F06F
:102E70000DF9C82001F0EEF8002000F007F9C82095
:102E800001F0E8F8002000F001F927720120B0728B
:102E900033E003F0D1FA2248C07D00282DD121482B
:102EA0000A21018629E003F0C7FABFE71C48C17E6A
:102EB000817605E01A48017F01E01948417F81765B
:102EC00007F0ECFF1648E671C07D002807D009E046
:102ED0001348817FF3E720E01148C17FEFE71148F5
:102EE0000A210186207A032805D9E87EF9210840C5
:102EF00040084000E87603F05DFB0621074803F038
:102F000047FD0020A877A079002806D02078002867
:102F100003D0FF210448F5314180F8BDB303002000
:102F20004C0C00201003002050030020F8B58C4604
:102F30002E490A460F781679557953789478D278C5
:102F4000002F02D0F62F1AD009E0002B07D1002C59
:102F500005D1002A03D1002E01D1002D43D0FB184A
:102F60001B19DBB200240470214C9A421ED0E07F72
:102F7000012838D01F480078002808D033E0F63305
:102F8000A2189A189219D3B22A460124EBE7604698
:102F9000002828D004F0F6FBA07F052823D2F620D5
:102FA000FFF7AAFEA07F401CA0771CE00022A277BA
:102FB000007800280CD00879062814D8C87805288D
:102FC00011D8887807280ED8487801280BD808E04F
:102FD0008878062807D84878052804D8087807286C
:102FE00001D80120F8BD0020F8BD0000B303002087
:102FF000AC0C0020CC0C002010B5FFF753FE642071
:1030000001F028F804F0BEFBFDF7B8F910BD000090
:1030100030B40A490020487409490C78002C0AD9B8
:10302000084D09492B5C8A691202FCD40B60401CD4
:10303000C0B2A042F6D330BC70470000CC0C0020D8
:10304000B00300200A3800200000054010B50C4CE9
:10305000617800290DD0002000F020F9FFF766FE0E
:103060006178012000F01AF9FFF760FE07F0D0FE4A
:1030700010BD0449002008800349087010BD0000FD
:10308000600300204603002022030020F0B55049D1
:103090004E4CCA7EFB239446E57A1A40277A6B1C75
:1030A000DEB2062F14D23B007B441B79DB189F4411
:1030B0000F021C324C6C00280BD0FD20024050083F
:1030C0004000C876052D03D204221043C876E6726C
:1030D000F0BD6046FD22104040084000C87642071F
:1030E00001D5FB2215E004226CE000280BD0FD2066
:1030F000024050084000C876052DE9D20222104354
:10310000C876E672F0BD50084000C87682073AD50E
:10311000FD22104057E000280BD0FD20024050084F
:103120004000C876052DEDD201221043C876E67224
:10313000F0BDFD200240CA76D00702D05008400002
:1031400041E001200243CA76F0BD002809D0FD20ED
:10315000024050084000C876052DF5D204221043E5
:10316000CCE7604640084000C876420702D5FB2203
:10317000104001E004221043C876C0B2820702D595
:10318000FD2210401FE002221CE0002809D0FD2093
:10319000024050084000C876052DD5D202221043C7
:1031A000C2E7CA76900702D5FD20024001E0022066
:1031B0000243CA76D0B2C20703D040084000C876A6
:1031C000F0BD01221043C876F0BD0000CC0C0020F9
:1031D000AC0C0020F8B52D4C607C2D4D00262D4FF9
:1031E000EE281AD0787A002824D0207C002821D11B
:1031F000607CEA2802D0288800281BD1F87A264B68
:103200000101081A24490A5C2049C018C979F72A23
:1032100011D0F32A22D0092123E0387B401CC0B210
:103220003873052803D802F013FD0A200DE03E7321
:10323000EA206074F8BDA27C002A09D1BA7B521C36
:10324000D2B2BA73032A02D208202880F8BDBE7316
:10325000042908D10F2102F0DBFE04E0042902D189
:10326000052102F0D5FE787A401E7872F87A401C6B
:10327000C0B2F872FA2800D3FE72A07C002803D0F6
:103280000A2028803E73F8BD0820FAE7CC0C002005
:10329000480300206003002064220020F0B50A46A5
:1032A00087B0423A0692093A0592FB4A0126521823
:1032B000E03A0492F94A0392F94A0B465278029294
:1032C000F84AFC4D927E0192F74A527894460A469B
:1032D000823A9640F54AD23B127A0092F44A541848
:1032E000F54AA03C5718243A803FD27900287DD077
:1032F0006B2903D9CC2901D00B2B5FD80698032862
:1033000012D9372910D047290ED048290CD04A2984
:103310000AD00598022814D8F2206A461070E748AF
:10332000405C50700221A1E0DD48F0220270E34BC6
:10333000029A595C0A434270DC490120C87007B008
:10334000F0BDCC2904D00B2B04D80498807B03E07B
:10335000642001E0D948405CD44C052A0AD2D04907
:10336000F0230B708918C870521CE2710120E070C4
:1033700007B0F0BDCC291FD00B2BF9D9D048405C49
:10338000D049F7220A70C20855184007012769780A
:10339000400F3E468640314208D0CA4800F012FA3B
:1033A0006878B0436870C74800F00CFA687830431A
:1033B0006870277107B0F0BD6C20E1E7CF2933D0EA
:1033C0007D293DD9D0293BD0D12939D08629F1D8C2
:1033D000812958D8B878B34E401CB8707079B64C73
:1033E00000280AD0002003F051FB00E0BEE0F07896
:1033F00000283DD0B4480A210180B4490878401C17
:10340000087020780028D5D060780028D2D0A07825
:103410000028CFD0E0780028CCD07D20C000688282
:103420000420687507B0F0BD01980028FAD09C49C7
:10343000F0200870012008729C49C870039992E03E
:10344000F1206A461070A2484A0010187D2905D85C
:10345000E038017A6A465170407A05E0FF388138D9
:1034600001796A46517040799070032110464DE110
:10347000964800780028C0D1707996494000095AD2
:1034800091480180B9E7842926D8874DF320287018
:103490000098864F0642A17F604614D0884368702A
:1034A00003F0C0FA6878A17F0843687003F0BAFAA5
:1034B0006878A17F8843687003F0B4FA387AB04323
:1034C000387207B0F0BD08436870009806433E723A
:1034D00003F0A8FA07B0F0BD734E307900280BD086
:1034E000852902D0862903D006E0802802D803E08F
:1034F000802801D2784868826A4D287C002803D051
:10350000687E002803D115E00198002812D0F3202E
:103510003070A07F307103F085FA287900270028E9
:1035200006D903F07FFA7F1C2879FFB2B842F8D899
:1035300001200EE0F32030705A48684A007985294E
:10354000105C02D0FF210131081A307103F06AFAD1
:103550000020A871A07F3071FF215B48F531018008
:103560005A490878401C087007B0F0BD6B2903D990
:10357000CC2901D00B2B71D80698032811D93729F3
:103580000FD047290DD048290BD04A2909D00598DA
:10359000022813D8F22069460870002048700221E2
:1035A000B3E03F48F0220270444B029A595C8A43D0
:1035B00042703E490120C87007B0F0BD0126CC29F9
:1035C00004D00B2B04D80498857B03E0642501E02C
:1035D0003A48455C0020002A23D9314C2718FF784F
:1035E000AF4218D1F021314B217090420DD200250D
:1035F000042804D221180E79CE700D7101E0211833
:10360000CD70401CC0B29042F2D3521EDA7101203C
:10361000D87007B0F0BD401CC0B29042DED3012E7E
:10362000F7D1CC2918D00B2BF3D92548405C254C79
:10363000C1080919450701224B786D0F1046A840B3
:103640000342E6D0F72323704B78834317484B702F
:10365000027107B0F0BD01E06C20E8E7CF293FD050
:103660007D294CD9D0294AD0D12948D08629F0D8F3
:1036700016480278501EC0B281294BD8B97800296B
:1036800001D0491EB9701149002A00D008700020ED
:10369000688207B0F0BD0000D0C300006C0C0020B1
:1036A0000C0E00204C0C002088030020600300203A
:1036B00081C100008C0C00208403002064C3000042
:1036C000DCC30000150E00204C0300201503002071
:1036D00048C4000070C40000B80B000098C100008E
:1036E00001980028D5D01B48F021017000210172FB
:1036F00019480122C2700398017007B0F0BD002084
:103700000090F120694608700321684602F080FCB1
:1037100007B0F0BD842911D800980F4D0028F7D0CC
:103720000E48F3210170A27F61469143417003F07E
:1037300079F9287AB043287207B0F0BD0021084B10
:103740006982002A00D0187004480171054881710F
:1037500007B0F0BD0C0E002060030020880300209D
:10376000150300204C0C002070B50C460546FFF7F1
:1037700095FD6B2C03D92146CC3911290ED80C4864
:10378000C07800280AD00B4B0B4A0C49002D06D0FC
:103790000B484C70C08918800120107070BD4878AB
:1037A0008442FBD1002018801070487070BD00006A
:1037B0006C0C002046030020220300206003002040
:1037C0004C0C0020F8B5314D0446687A0027304E85
:1037D000FA2819D3E87A334601010A1A2D48B15C58
:1037E000C079D218F7292AD0F3292FD00921104601
:1037F00002F00EFCE87A401CC0B2E872697A491EF9
:103800006972FA2800D3EF722078F72825D0F328C0
:103810002FD0A97A00200A01511A8919225C0A5472
:10382000401CC0B20928F9D3A87A401CC0B2A872C3
:10383000697A491C6972FA2800D3AF72F8BD04286E
:10384000D8D10F21104602F0E3FBD3E70428D1D1F1
:103850000521104602F0DCFBCCE7A97A00200A0122
:10386000511A8919225C0A54401CC0B20F28F9D39E
:10387000DAE7A97A00200A01511A8919225C0A5450
:10388000401CC0B20528F9D3CEE700006003002039
:1038900064220020CC0C0020810F8A0004495118BA
:1038A0004A68C306DB0E0120984082434A60704795
:1038B00000020050810F8A00044951184A68C3066B
:1038C000DB0E0120984002434A607047000200501E
:1038D00002490A6802430A60704700000002005073
:1038E00008B51148006800901048016A00130142B1
:1038F00001D0002008BD080301D50D4800E00D48A7
:103900008A03F7D40A04920F6B469B5CCA058904AC
:10391000D20DC90E921C891C800859435043FCF7F4
:103920000DFC800008BD0000F4CB00000002005038
:103930000080510100093D0030B4224D83B06C6815
:103940002B68AD680093430E029501945B0725D068
:1039500083009B0F9B006C46E3581B4C1B19040112
:10396000650FC401E40EA5401C68AC430C431C6009
:10397000164B174D984207D1EB69FF240134A3433E
:1039800021400B43EB6109E0124B984206D1EB69F1
:1039900001246402A34321400B43EB61830A19060F
:1039A000090E0CD00103890F0B4C89000919800501
:1039B000DBB2C00E8340086898431043086003B030
:1039C00030BC704798CB0000100200501400C05764
:1039D000000200501500E05718020050034A116918
:1039E00038239943014311617047000000020050E1
:1039F00070B5134A0023D18A814202D8C91C814282
:103A00001CD21049884202D3D182642310E00E4CAC
:103A100000218D002D196D88854205D98800235C11
:103A200000194088D08203E0491CC9B21429F0D3A0
:103A3000107D984202D01846FFF776F870BD00005E
:103A4000CC0C00207E020000DEC0000070B50B4CE4
:103A50000020A072217E0125002901D0207600E0FF
:103A6000257605220121064800F02CFC207E401C12
:103A7000C0B200F035FFA57270BD00004C0C0020F4
:103A8000640C0020F8B5304E307C002813D12F484C
:103A9000807900280FD1F07D00280CD02C48028AB4
:103AA0002C490025202A02D0028A022A02D1408A0B
:103AB000302801D00D84F8BD088C401C80B20884E9
:103AC0003228F8D9244C0D84617C01272348002931
:103AD000B5721DD065742E22012100F0F3FBA57391
:103AE0001F48E573026841068A43026002F044FE03
:103AF000FEF78CFF307A1B494000085AFCF754FE51
:103B00001948FFF7C9FE012000F0EAFEB772F8BDC0
:103B100067742E22012100F0D5FB307A1349400052
:103B2000085AFCF741FE1048FFF7C4FE0C48016834
:103B3000420611430160A7730D48E77305720D48F3
:103B40000078FCF7A3FDE1E74C0C0020CC0C002032
:103B5000C41A002060030020AC0C0020BD0C002023
:103B6000200001406CBD00000300C05E60BD00008D
:103B70006C0C00206BC6000000B5164883B0007CBA
:103B800000280BD114494B89144A042B05D10B8A08
:103B9000012B02D1498A042902D0508303B000BD11
:103BA000518B491C89B251831E29F7D9009001908D
:103BB00002905083F020694608700921684602F09F
:103BC00027FA642000F046FAF820FFF795F803B0D2
:103BD00000BD00004C0C0020C41A0020600300202F
:103BE000F8B504F031FB164D286801210843286020
:103BF000A80100F0AFFC05270446384217D028681A
:103C0000102630432860A80100F08AFC214628686D
:103C1000B94330432860A80100F0ACFC28683103A8
:103C200030432860074800F0A5FC04F0F9FA286842
:103C3000400840002860044900200860F8BD0000EA
:103C400000C00050040030000001005008B5002002
:103C5000024600900221684600F060FB684600784A
:103C6000DD280AD0CC2807D168464078CC2803D17B
:103C700002F068FA07F036FA08BD68464078DD2899
:103C8000F6D008BD70B51F48038A1F4A0021022BD9
:103C900002D0038A202B02D1808A022801D05184CD
:103CA00070BD508C401C80B250843228F8D9174E19
:103CB000174CB57AB17251846079002801D06171D6
:103CC00001E001206071134A0121134800F0FAFA63
:103CD0006079401CC0B200F003FE607901280ED16B
:103CE000307C002809D0707C012806D0022806D13B
:103CF00000210E2002F06AFF01E002F0CFFAB57257
:103D000070BD0000C41A0020600300204C0C00208D
:103D10006C0C0020E7FD0000710C002010B512486B
:103D2000038A124A0021222B02D1408A102801D096
:103D3000918310BD908B401C80B290833228F8D9BB
:103D40000B4C0020A17291830A4A8300401CC0B230
:103D5000D1504228F9D3074804F08AFA012000F034
:103D6000BFFD0120A07210BDC41A00206003002016
:103D70004C0C0020E40C0020F8B5244C207C0028DA
:103D800043D02348018A0026224D202902D0018AEF
:103D9000022904D1818AFD221140042917D0EE8323
:103DA000A979002931D0018A00292ED1808A0028E2
:103DB0002BD1687A002828D1AE71A672BFF34F8F3D
:103DC00016491548C860BFF34F8F00BFFDE7E88B69
:103DD000401C80B2E883322817D9A672EE830920EE
:103DE00000F0E0FA01270028684601D0067000E0E4
:103DF00007700922012100F065FA68460078401C2E
:103E0000C0B200F06DFDAF71A772F8BD4C0C002080
:103E1000C41A0020600300200400FA0500ED00E051
:103E2000F0B52D4DC5B0686900262C4C002846D051
:103E30002B4FBE720A2000F00DF96869002833D0BC
:103E4000A07E0028F6D1607E0028F3D0E07E082115
:103E50000843E0760120A0762248C179002912D0DB
:103E6000C6712148FF210090093102A8FCF7A9F989
:103E7000422202A8009900F0D5F8FF211B4A09311F
:103E800002A800F0C5F92E616676BE72642000F0CB
:103E9000E1F8E07EF7210840E076A67302F06CFCC2
:103EA0000A2000F0D7F8FBE70A2000F0D3F8686991
:103EB0000028BFD1A6760120B87245B0F0BDA07E23
:103EC0000028FAD00A2000F0C5F868690028F4D16B
:103ED000A67645B0F0BD000040420050AC0C00207A
:103EE0004C0C002010030020E40C0020E8FD000032
:103EF000F8B532490A88324D00266879314C012ADA
:103F00000AD10A8A012A07D14A8A202A04D18A8A38
:103F1000FD231A40042A05D0002840D00888002834
:103F200028D01AE0298B491C89B22983322911D95A
:103F3000002812D1244886722E8302F003F901274B
:103F40006F71E07E9F210840E076A67302F014FCBA
:103F50001D4887726879002822D0288B401C80B2C7
:103F6000288302281CD92E83E07E410619D5BF2163
:103F7000084018E0088A0028EFD1488A0028ECD1D0
:103F8000888A0028E9D1687A0028E6D1BFF34F8FEC
:103F90000F490E48C860BFF34F8F00BFFDE72E8367
:103FA000F8BD40210843E076C0B2810602D5DF218A
:103FB000084001E020210843E076F8BDC41A002043
:103FC00060030020AC0C00204C0C00200400FA051B
:103FD00000ED00E0F8B5104E0020B57A0F4CB0723D
:103FE000A07302F0C9FB00210D4FFF220623002021
:103FF0004B43DB191A54401CC0B20628FAD3491CA3
:10400000C9B20B29F2D3064807F036F801F024FEB6
:10401000B572E07BA073F8BD4C0C0020AC0C002006
:10402000E21B00200023002A12D910B40C7804707F
:104030000C885B1C240A44700C68DBB2240C84706E
:1040400010C9240EC470001D9342EFD310BC7047FA
:1040500070470000F8B500250646002815D90B4C1E
:1040600000270B487D210068C90048436061A761B3
:1040700020690521084320612069C003FCD506F0B2
:10408000C7FE6D1CADB2B542EBD3F8BD00E000E059
:104090000400002007490968484307494861002097
:1040A000886108690522104308610869C003FCD5CE
:1040B000704700000400002000E000E0F0B5A1B06F
:1040C00040216846FCF77DF81A4F0025BC7ABD7286
:1040D00010A803F03FFA03F01BFB014610A806F0FE
:1040E0008FFF69460D70DA2048708870402168465D
:1040F00006F0F2FD002210231146062610AD714392
:104100004E190D4D00204919355C802D01D30B54FB
:1041100000E00D54401CC0B20628F5D3521CD2B2A8
:104120000B2AE9D30548007D02F078FBBC7221B070
:10413000F0BD00004C0C00201C1B00206003002080
:10414000F0B5A5B040216846FCF73BF82C480024A8
:10415000817A1291847213A803F0FCF90020109068
:10416000109B28490622002653435C1813A93046A9
:1041700037465D18295C225C914202D9891A29547C
:1041800001E039462F54C9B28919401CC0B28EB221
:104190000628EFD31C480024181811902F5D0A2F11
:1041A00007D9F01B810040186421FBF7DDFFC0191F
:1041B0002855285D102801D311990855641CE4B2D4
:1041C000062CEBD31098401CC0B210900B28C7D31C
:1041D0000D4806F051FF01F03FFD002069460870D0
:1041E000DE20487088704021684606F075FD07485B
:1041F000007D02F013FB02491298887225B0F0BDD1
:104200004C0C00201C1B0020E21B0020600300203F
:10421000F0B507460E465006400E802183B0091ABD
:10422000009171040C0E7106490E1546019100288B
:1042300007D00098B0421ED3F1B2384600F042F8E1
:104240003CE0002C13D02A468021384600F03AF892
:1042500080358037641E2406240EF4D1019800288E
:104260002CD001462A46384600F02CF826E0384685
:1042700000F028F822E00146384600F023F80098C4
:10428000311A3F182D1848044E06000E760E0028ED
:104290000FD0401EC4B22A468021384600F012F8E2
:1042A0002046641E80358037E4B20028F3D1002E0A
:1042B00004D02A463146384600F004F806F0A8FD3E
:1042C00003B0F0BD70B5054613481446407B0E465A
:1042D00000281FD107F012FDA02007F0C9FC200420
:1042E000000E07F0C5FCE0B207F0C2FC701EC4B2BD
:1042F000002E08D0287807F0BBFC2046641E6D1CF9
:10430000E4B20028F6D107F011FD0820FFF7A2FE65
:1043100006F07EFD70BD0000AC0C0020F7B5054630
:1043200001980024002839D91D4E0298071906F07B
:104330006FFD07F0E3FCA02007F09AFC3804000EA4
:1043400007F096FCF8B207F093FC07F0D7FCA12029
:1043500007F08EFC0023184601221F4659060B0E5B
:10436000F7620021491CC9B20729FBD3F262002180
:10437000491CC9B20729FBD3B16A002900D01343F5
:10438000401CC0B20828E9D3F76207F0CFFC2B70BD
:10439000641C01986D1CA4B28442C6D303B0F0BD66
:1043A0000042005070B5044606F032FD07F0A6FC4E
:1043B000A02007F05DFC2004000E07F059FCE0B2DD
:1043C00007F056FC07F09AFCA12007F051FC0023EF
:1043D0000F4A18461C46012559060B0ED4620021CF
:1043E000491CC9B20729FBD3D5620021491CC9B2B7
:1043F0000729FBD3916A002900D02B43401CC0B28F
:104400000828E9D3D46207F091FC184670BD00007B
:104410000042005070B5124D124CE87900280BD0C4
:10442000FEF770F9A079042805D8E879002802D0B1
:104430000B20FCF719FB70BDA878092802D00828CA
:1044400003D004E000F010F801E000F057F8A07984
:10445000012803D0A878FCF707FB70BD2879FAE79C
:10446000C00300206C0C002000200549FF220870CA
:1044700048708A70034948820349C8727047000037
:104480001A04002000040020C0030020F8B500201A
:10449000144905464200401CC0B28D520B28F9D386
:1044A0000021114E114F012206240B4663430020C8
:1044B0009C19DB1925541A54401CC0B20628F9D3A4
:1044C000491CC9B20B29EFD3094900200D54401CE7
:1044D000C0B24228FAD307480749007A085CFCF7C3
:1044E000BFF8F8BD6A3800200C3A0020903A00204E
:1044F000D23A00206C0C00206BC600000549FF205A
:104500000870002048708870034948820349C872C7
:10451000704700001A04002000040020C00300209F
:104520000B492222CA60486001200861BFF36F8FE7
:1045300008690028FCD10868400606D508684022B2
:10454000104308600020C0437047002070470000FF
:1045500000C0005006490022CA604860012008617E
:10456000BFF36F8F08690028FCD18868704700008E
:1045700000C00050064A2123D360506091600120A2
:104580001061BFF36F8F10690028FCD170470000E5
:1045900000C0005070B5114CE27C002A1BD01048BE
:1045A000408A102817D000230E48A3720125017CF1
:1045B000022A02D0012A04D007E001290CD0057498
:1045C00003E0022908D002210174007C401CC0B223
:1045D00000F086F9A57270BD0374F6E74C0C00205C
:1045E000C41A00206C0C0020F0B4002301273C46C4
:1045F0009C400C4208D005685C000326A640B543E9
:104600001646A640354305605B1C102BEFD3F0BC6B
:1046100070470000F0B583B0684605F053FB68466C
:104620000078444B000680241A1F002868463F4942
:104630003F4D407838DA012816D001263E4F022837
:104640001BD0032822D000242046010189180968C4
:104650000907090FA14222D10001C01801680222F6
:104660001143016003B0F0BD8869204388610021D7
:10467000084605F021FC03B0F0BD287A0A68D2197B
:1046800010708868204388604E60EDE728790A68DA
:10469000D21910708868204388604E60E4E7401C9F
:1046A0000828D2DB03B0F0BD0026092811D00A2863
:1046B0002AD00B2831D0002420460101891809682E
:1046C0000907090FA142C7D0401C0828F5DB03B039
:1046D000F0BD6846C078032810D00228F7D1886959
:1046E000204388616846807948612878401C28709A
:1046F0000021084605F0A6FB03B0F0BD8869204301
:1047000088614E6103B0F0BD68468078A860886813
:10471000204388604E6003B0F0BD684680786860D2
:104720008868204388604E6003B0F0BD00050640F5
:10473000040300200C050640000106401348002237
:1047400082610921124889018160082101601123D9
:104750005B0183610161212181621021016240219D
:10476000416242218163502101630A4843218160F3
:104770009021016044218161982101610648012155
:1047800041708170C17002707047000000000640E7
:10479000000506404005064004030020044612A020
:1047A00006F0D8FC16A0216806F0D4FC17A06168BA
:1047B00006F0D0FC18A0A16806F0CCFC19A0E168B6
:1047C00006F0C8FC1AA0216906F0C4FC1BA06169B0
:1047D00006F0C0FC1CA0A16906F0BCFC1DA0E169AC
:1047E00006F0B8FCFEE70000496E204861726420C4
:1047F0004661756C742048616E646C65720A0000D5
:10480000723020203D20307825780A007231202037
:104810003D20307825780A00723220203D20307803
:1048200025780A00723320203D20307825780A0050
:10483000723132203D20307825780A006C722020B9
:104840003D20307825780A00706320203D203078A4
:1048500025780A00707372203D20307825780A0090
:104860000022012832D810B50023194C1949A3722F
:10487000002802D0012816D021E0C878401CC0B220
:10488000C870032800D9CB70207C002806D0E079BE
:10489000022803D1C878032800D1CB70CA780E480B
:1048A000805CA0810BE00879401CC0B2087102282E
:1048B00000D90B710A7909495000085AE081521C4D
:1048C000D0B200F00DF80120A07210BD70470000BA
:1048D0004C0C00206C0C0020C0C00000CAC00000BE
:1048E000F8B50025064600282DD9174CBF27E07ED5
:1048F000410601D5384001E040210843E076C0B2CE
:10490000810602D5DF21084001E020210843E0763E
:10491000FA20FFF79FFBE07E410601D5384001E019
:1049200040210843E076C0B2810602D5DF2108406D
:1049300001E020210843E076FA20FFF78BFB6D1C95
:10494000EDB2B542D3D3F8BDAC0C002070B513491D
:10495000144ECA7E97200B7F1040114D317A940679
:1049600004D5EC5C8C4201D320242043540604D5AA
:10497000EC5C8C4201D340242043120704D5EA5C4E
:104980008A4201D308221043491CC9B231720A2954
:1049900001D30021317201F0CBFE70BDAC0C0020C0
:1049A000C4C000001003002010B50548807B00281B
:1049B00002D000F007F810BD00F03CF810BD000078
:1049C000AC0C0020F8B5184D184F194E00240720E4
:1049D000FFF760FB204602F079FD0146288B8842F4
:1049E00003D9401AC0B2802800D90020B17DCA0086
:1049F000511AC91909194870641CE4B2062CE6D38F
:104A0000307DB17DCA00511A7854B17D491CB17511
:104A1000401CC0B230750B2801D300203075C0B2E5
:104A200001F0FCFEF8BD00008C0C00200A310020D3
:104A300060030020F0B51B4C607D02F047FD1A4971
:104A4000098B814203D9081AC0B2802800D90020FE
:104A5000164A617D5054491CC8B2607506281FD3A0
:104A60000025134B65752846165CA17DCF00791A89
:104A7000C91809184E70401CC0B20628F4D3207D16
:104A8000A17DCA00511A5854A17D491CA175401C32
:104A9000C0B220750B2800D32575207D01F0BEFE25
:104AA000F0BD0000600300208C0C00208D0300206E
:104AB0000A310020F0B58BB0002005900690FB482D
:104AC000FB4E0078002800D8F7E3FA480990FA482E
:104AD0000890FA480790FA4DFA4CFB480490FB48BE
:104AE0000699405CC109029141060498490E40793B
:104AF000002802D00E2900D155E202980028F4487F
:104B0000C07C14D0422250434218E848F14F007C48
:104B10003A54E64A401C1074EF488A001018403896
:104B2000C26B521CC263ED480122027063E0422254
:104B30005043DE4A4018127CC3B200209446002A3B
:104B400021D9E44F3A5C9A4214D1624660450AD2B8
:104B5000E04A17187B7813540022401C7A70C0B2C8
:104B600062466045F4D3D148521E0274049A002074
:104B7000907340E0401C604502D3049A012797736C
:104B8000C0B26045DDD30498807B002833D0049AFE
:104B90000020D07303900398422250434018C34A28
:104BA000C0B28446177C0020002F1ED9C94A125C6F
:104BB000624516D1B8420BD2C64A13189C465B78A0
:104BC00013540022401C6346C0B25A70B842F3D35B
:104BD000B6487F1E0774049A0398D073032003908D
:104BE00003E0401CC0B2B842E0D30398401CC0B2FE
:104BF00003900328CFD3287B844601280CD060463D
:104C000002287DD30498807B00287ED00498049BE2
:104C1000C07B00229A737AE00498807B002818D029
:104C20000498C27BAE48121848000818C31ED25C14
:104C3000AC4B002A1A7006D1A94A80182038407F50
:104C40001870002801D001200590049A002090736C
:104C50001AE09F48C27CA248131848000818C71ED3
:104C6000DB5DA04F002B3B7002D0012005900BE0D4
:104C7000002A15D09A4A80182038407F994A002887
:104C8000107001D0012005909148027C002A11D0BB
:104C9000407E002834D0934A1078992802D017E03B
:104CA0000020F0E748008E4B0818C0182038407FDD
:104CB00010700DE0807E002822D08A480278992A60
:104CC00006D14A00864B8A18D218203A527F0270C9
:104CD0000598012814D1480009188148814F091806
:104CE0002039C87F00908B7F4A7F3978029803F083
:104CF00067FD0100787000D039706C48017C01E0DC
:104D00006FE102E0002975D06BE17148C07C049A24
:104D1000127C012A02D0022A07D00EE0002802D01D
:104D2000012809D009E0012007E0002802D002286C
:104D300002D002E0022000E000206246032A04D3F1
:104D40005300D2181018801FC0B284220346534368
:104D5000654A9A184B00D218203A937FD27F1B02E3
:104D60009A18009200D11EE1C622604B4243D3182C
:104D70004A008A189B18203B03925A7F0192012A0D
:104D800016D0921E022A73D8514A927C002A00D172
:104D900009E1029A002A6CD042225043401843494C
:104DA00002908978884243D1019804283DD03FE0A1
:104DB0004748807C002800D1F5E00298002832D0D6
:104DC0000098C01CFFF7EEFA07020098001DFFF7DD
:104DD000E9FA381880B24649A083884200D9A183F5
:104DE0003B48007C002806D0A08B03280FD203206C
:104DF000A0830CE06AE1B07C0028A08B03D00328DC
:104E000005D2032002E0102801D21020A0830098D0
:104E1000401DFFF7C7FAE076009A0146921D35481B
:104E2000FFF77CFA0120A076BDE0E07F01283CD0AE
:104E3000A07F002864D01D49C87B002860D00027CF
:104E4000002825D92248017C002913D0407C012864
:104E500002D0022806D012E02748C15D002005F0EC
:104E6000FBF90CE024480021C05D01F0AFFE06E034
:104E7000ABE099E02048C15D0020FEF70FFA1E4923
:104E80000020C85509487F1CC07BFFB28742D9D398
:104E900006490020C8730E48017C00292ED0407CB2
:104EA00001282DD105F086F92AE08BE0600300206F
:104EB000CC0C0020550C0020B80C0020630C002006
:104EC000AC0C00208C0C00206C0C0020E70E0020A5
:104ED0004C0C0020630E0020E40C0020170300207F
:104EE000BCC400007C040020290F0020CD1300204A
:104EF00060EA000093030020330E0020FDF716FF48
:104F0000FB49029888700120A077E077019828700B
:104F10000098C01CFFF746FA68700098001DFFF764
:104F200041FAA8700098401DFFF73CFA070200986C
:104F3000801DFFF737FA381880B2EE492881884281
:104F400000D92981EC48007C002805D02889032855
:104F50000ED2032028810BE0B07C0028288903D0E2
:104F6000032805D2032002E0102801D21020288156
:104F70000098C01DFFF716FA070200980830FFF7E7
:104F800011FA381880B2192189016881884200D944
:104F90006981009A69890932D848FFF7BFF9002072
:104FA000D349A880C8733DE1422250434218D048FB
:104FB0008078824202D0884200D033E101980328F1
:104FC00000D02FE10020E0772CE10020A076997F2F
:104FD000CB48059101291AD0009ACA48121DFFF743
:104FE0009DF9C84908789C2876D0A62872D09628C2
:104FF00071D0C148827C002A00D113E1059A0027B4
:10500000002A00D8F4E30598012873D025E1BD4AB1
:10501000D97F11700191B8490A7C002A03D0497EDA
:10502000002903D1DDE7897E0029DAD06146022913
:1050300007D0032916D004292AD0B249002048708D
:1050400040E003990818FF218C31095C0091C521CB
:105050000B5C2038C27F0199029803F0B1FBA9498B
:1050600048702AE0039908180F2189014118497FE7
:105070000091032109024118CB7D092189014018C3
:10508000427C0199029803F09BFB9E49487014E012
:1050900003990818312149014118C97B00912B213E
:1050A000490141184B7A252149014018C2780199DC
:1050B000029803F085FB934948709249487800288C
:1050C00000D008708A48017C00298AD100214174EF
:1050D00087E701E019E02DE0287B022803D386480A
:1050E000C07C022807D0029800280AD082480121FB
:1050F000C17497E035E00298002817D118E060806D
:1051000090E07D490020C874F9E7287B022803D38A
:105110007948C07C012806D002980028F1D0764852
:105120000221C1747EE00298002801D07648E6E7AB
:105130000020E4E7A07F002874D10298002871D0F5
:105140006D4FB87C002804D00020B874002802D02D
:1051500003E00120F9E701F0A1F8B87C01F0A4F91F
:1051600060E06549087E00280AD0664AD05D2A289A
:1051700002D0432802D003E0432000E02A20D0558B
:105180000498807800280AD05E4AD05D1B2802D09F
:10519000292802D003E0292000E01B20D0555648E2
:1051A000017C5548002903D0407E002803D011E03F
:1051B000807E002827D104984078002807D05148E5
:1051C000C05D442878D0482876D0492874D04A4811
:1051D000002915D04848427C012A1ED1407E002873
:1051E0001BD0484AD05D44281DD045281DD04728F3
:1051F00002D04A2802D010E0482017E0472015E0EE
:10520000807E002809D03F4AD05D44280BD0452835
:105210000BD04728F0D04A28F0D03A48C05D9A28F1
:1052200006D01AE0EBE3452000E04420D05514E01E
:105230002F4A907C002809D001280BD00298002822
:1052400043D032480178002938D0D6E32D48572181
:10525000C15502E02B494220C85502980028294830
:10526000C05D7DD0862803D90146CC39112978D874
:105270001F4A917C012975D9411E492907D94D3909
:105280001D2904D9CC2802D0D2380B286AD81F484F
:105290000178002966D0002101701D480180144961
:1052A0004220C8741448017C00297DD0407C01282C
:1052B0007DD002287AD0D3E215E3AAE30121017060
:1052C000AF2113488900018097E3104B002018702C
:1052D0000F4B1880D07C42281CD0572820D006487D
:1052E000002945D0407C012821D002283BD057E03E
:1052F0006003002060EA00004C0C0020241C002009
:10530000CD1300207C040020B80B00001603002001
:1053100042030020FA494220C8550020D074D9E247
:10532000F7485721C155F7480021C174D2E25721EF
:10533000012005F04DFAF348C078002805D0F24866
:1053400005F0DCFBEF490020C870EE48007900282A
:1053500026D0EE4805F0D2FBEA48002101711FE09B
:10536000B2E276E059E00121572001F02FFC17E06E
:1053700057210120FEF7F8F9E248C078002805D04F
:10538000E148FEF71FFADF480021C170DD480079CF
:10539000002805D0DD48FEF715FADA49002008712B
:1053A000D7485721C15595E21FE000E018E042219F
:1053B000012005F00DFAD348C078002805D0D24866
:1053C00005F09CFBCF490020C870CE48007900282A
:1053D00023D0CE4805F092FBCA49002008711CE09A
:1053E0000121422001F0F2FB17E042210120FEF7EB
:1053F000BBF9C448C078002805D0C348FEF7E2F9DD
:10540000C0490020C870BF480079002805D0BF48B7
:10541000FEF7D8F9BB4800210171BD48017C002985
:1054200011D0407C012802D0022806D018E2B448EE
:10543000C15D029805F0CCF912E2B1480299C05D55
:1054400001F0C4FB0CE2AE48C15D0298FEF78CF996
:1054500006E294280AD8AE4A002187389172C0B279
:10546000FCF774FAAA4901208872F9E195280ED058
:1054700097282BD098282DD099282FD09B2831D031
:105480009E2833D8FF21F53161829D3882E1A04901
:1054900000208872487A401CC0B24872022801D9A4
:1054A00000204872062201210998FEF70BFF00F048
:1054B000D3FB9748407A401CC0B2FFF711FA9149DC
:1054C00000208875924901208872C9E1904891496D
:1054D000C187C5E18E488F49C186C1E18C498D489D
:1054E0004887BDE18A488B494186B9E19F2820D091
:1054F000A7282FD00146A83902297DD9B4287BD00E
:10550000B52879D0AB2878D0AC2877D0AD2876D024
:10551000AE2875D0AF2873D0B02872D0B12871D022
:10552000B22870D0B3286FD0B6286ED0C6286DD000
:1055300096E1287B401CC0B22873042801D90120C1
:105540002873C0B201F056FD042201210898FEF72D
:10555000B9FE85E16E4900208872097C002928D0B7
:105560000121B1716A496C4A0874C8740120106144
:105570006876487D8875FDF7F1FB05F003FAFAF7C8
:10558000FDFEE87E07210843E876FF20F530FEF7B0
:1055900061FDE87EF921084040084000E8765F4858
:1055A0000078002803D04620FDF7BEFA39E06420D9
:1055B000FAE759498A69002A33D0B279002A30D0F3
:1055C000534AB07101231374D07408616876FAF7F6
:1055D000D5FEFDF7C3FB05F0D5F905F05FFCE87ECD
:1055E000F921084040084000E8764948407C0128FD
:1055F0000FD0474902280AE017E023E096E0C5E013
:10560000CAE0CEE0F5E00FE118E11AE123E105D0B0
:1056100007E03F48807D00F00FFF02E0887D00F04A
:1056200027FF3B48012181721AE13949097C002991
:1056300065D1AA2801D8A73800E0B0387072354883
:1056400070800DE13248017C002958D1B1790029E0
:1056500055D1C17D002952D10121C175002181722E
:10566000032003F00DFB5921162388222C480160EA
:105670000360026000680028F8D02A48016A03220B
:10568000920391430162016A1F2252029143016217
:10569000016A4A0A520246210A430262016AC201B1
:1056A00091430162016A420291430162C068042190
:1056B000084206D105F0ACFB1A490420C968014232
:1056C000F8D0184A01201169C908C90001431161C5
:1056D00003F072FB1248002101600D481249007A64
:1056E0004000085AFBF760F80C2201210798FEF7EA
:1056F000E9FD0120FFF7F4F8054901208872AFE0C9
:105700007C040020600300200C0E0020150E0020F9
:105710004C0C0020B80B0000404200501003002049
:1057200000010050000200506CBD0000C649087C1A
:10573000002878D1B079002875D1C87D002872D0B2
:105740000020C8758872A97B00290DD0A873E87362
:10575000BE480168420691430160BD48FEF79CF8CF
:1057600001F00AF8FDF752F9022003F089FAB9486E
:10577000FBF71AF80C2201210798FEF7A3FD012080
:10578000FFF7AEF8B0490120887269E0FF20F530DC
:1057900060820220607563E0AE38C0B2FFF760F847
:1057A0005EE0A948017C00295AD0407C012857D1ED
:1057B000A54C0026A672AE7300F0DEFFE079401C17
:1057C000C0B2E071022800D9E67113220121E01D68
:1057D000FEF778FDE079401CC0B2FFF781F8BFF317
:1057E0004F8F9E499C48C860BFF34F8F00BFFDE7B5
:1057F00003E1954900228A72087A401CC0B20872FF
:10580000052800D90A729048007A41009448405A0D
:10581000FAF7CAFF8C48007A401CC0B2FFF760F864
:105820008949012088721BE08748007C002817D135
:10583000B079002814D18B48E08011E0894860815C
:105840000EE08148007C00280AD1B079002807D1F9
:105850008548E08104E07C488022C1781143C17012
:10586000059801283FD97848017C002917D0407C51
:10587000012838D17D48C078002805D07C4805F043
:105880003DF97A490020C8707848007900282AD06C
:10589000784805F033F9754900200871A6E073488F
:1058A000C078002805D07248FDF78CFF6F490020B2
:1058B000C8706E480079002815D06E48FDF782FF49
:1058C0006A490020087191E0862803D90146CC3945
:1058D00011291BD85C48017C002911D0407C01288B
:1058E00002D0022806D081E06348C15D029804F02E
:1058F0006FFF7BE060480299C05D01F067F975E0D9
:105900005D48C15D0298FDF72FFF6FE097281CD01E
:1059100098281ED0992820D09B2822D09D2824D0BA
:105920009E2822D0AD2820D00146A839022920D9AE
:10593000B4281ED0B5281CD0B22849D0B3284AD0EC
:10594000B6284BD0C6284CD050E03F490020C8872D
:105950004CE03D490020C88648E03B49002048878C
:1059600044E039490020488640E0002060826075AC
:105970003CE03549097C002938D17188002935D0AF
:1059800000217180AA2809D80091A738F179C0B206
:10599000042910D1317A81420AD00CE00021009113
:1059A000B038F179C0B2042905D1317A814202D1EF
:1059B0000020F0721AE002213173F5216A4611705D
:1059C00050700221684600F023FB0020F0720DE0C9
:1059D0000020E0800AE00020608107E00020E081F4
:1059E00004E01948C1784906490EC1707F1C05982A
:1059F000FFB2874201D2FFF706FB05F009FA0698CD
:105A00001A49401CC0B206900978884201D2FFF7BB
:105A100066F80D48017C002905D0407C01280AD198
:105A200004F0C8FB07E0FDF781F9B17C13480029B9
:105A300008D0032101800D4900200870104908702A
:105A40000BB0F0BD0A21F5E74C0C0020200001400E
:105A50000300C05E102700000400FA0500ED00E01E
:105A600060BD0000B80B0000881300006003002038
:105A70000C0E0020150E00207C0400204E03002098
:105A800021030020F8B5FF2504460935224A29469E
:105A90002248FEF743FC214B2246002019181E5CC9
:105AA0004F78001D3F02BE198F78C9783F04BE1998
:105AB0000906891902C2A842F0D320680025401CBB
:105AC000002825D16068401C22D1E068401C1FD10D
:105AD0002069401C1CD1114AFF2109311554401C7A
